:1000000009C021C02FC01FC01EC01DC033C01BC0EF
:100010001AC019C011241FBECFE9CDBF10E0A0E661
:10002000B0E0EAEBF1E002C005900D92A236B10714
:10003000D9F720E0A2E6B0E001C01D92A836B207D1
:10004000E1F777D0B8C0DCCF98B320E1922798BB16
:1000500086E994E00197F1F7000088B3822788BB16
:100060000895F2CF8F93B19B03C081E08093660027
:100070008F9118951F921FB61F9211242F938F9363
:100080009F9380916200909163000196909363002A
:1000900080936200883E9340B9F4809164008F5F42
:1000A000809364001092630010926200809165005A
:1000B0008F5F809365008C3339F4109265008091D6
:1000C00067008F5F809367009F918F912F911F90A2
:1000D0001FBE1F90189582E08FBD83BF83E886BF47
:1000E0000895F894109263001092620010926500D7
:1000F0001092670089B7846089BF78940895F89456
:1001000089B78B6F89BF7894089588E187BB88B3DE
:10011000877E88BB08958BB780628BBFA99A0895AC
:10012000379880E888B9089585B7806285BF88953B
:100130000895F894EADFEFDFCEDFF2DF7894C7E0CE
:1001400085B7877E806185BFEFDFF894C49A1092EF
:100150006400C093600010926600C3DF789485B796
:10016000877E85BFE1DFF89480916600882339F0AF
:1001700080916400863018F467DF1092640010925A
:10018000660020916700789480916000082E000C32
:10019000990B2817190618F3F894C39A8DE190E289
:1001A0000197F1F70000C398C49810926000109274
:0A01B00066007894C5CFF894FFCFE5
:0201BA00FF0044
:00000001FF
